{
  "_format": "hh-sol-artifact-1",
  "contractName": "Staking",
  "sourceName": "contracts/Staking.sol",
  "abi": [
    {
      "inputs": [
        {
          "internalType": "address",
          "name": "stakingToken",
          "type": "address"
        },
        {
          "internalType": "address",
          "name": "rewardToken",
          "type": "address"
        }
      ],
      "stateMutability": "nonpayable",
      "type": "constructor"
    },
    {
      "inputs": [],
      "name": "Staking__NeedsMoreThanZero",
      "type": "error"
    },
    {
      "inputs": [],
      "name": "Staking__TransferFailed",
      "type": "error"
    },
    {
      "inputs": [],
      "name": "REWARD_RATE",
      "outputs": [
        {
          "internalType": "uint256",
          "name": "",
          "type": "uint256"
        }
      ],
      "stateMutability": "view",
      "type": "function"
    },
    {
      "inputs": [],
      "name": "claimReward",
      "outputs": [],
      "stateMutability": "nonpayable",
      "type": "function"
    },
    {
      "inputs": [
        {
          "internalType": "address",
          "name": "account",
          "type": "address"
        }
      ],
      "name": "earned",
      "outputs": [
        {
          "internalType": "uint256",
          "name": "",
          "type": "uint256"
        }
      ],
      "stateMutability": "view",
      "type": "function"
    },
    {
      "inputs": [
        {
          "internalType": "address",
          "name": "account",
          "type": "address"
        }
      ],
      "name": "getStaked",
      "outputs": [
        {
          "internalType": "uint256",
          "name": "",
          "type": "uint256"
        }
      ],
      "stateMutability": "view",
      "type": "function"
    },
    {
      "inputs": [],
      "name": "rewardPerToken",
      "outputs": [
        {
          "internalType": "uint256",
          "name": "",
          "type": "uint256"
        }
      ],
      "stateMutability": "view",
      "type": "function"
    },
    {
      "inputs": [
        {
          "internalType": "address",
          "name": "",
          "type": "address"
        }
      ],
      "name": "s_balances",
      "outputs": [
        {
          "internalType": "uint256",
          "name": "",
          "type": "uint256"
        }
      ],
      "stateMutability": "view",
      "type": "function"
    },
    {
      "inputs": [],
      "name": "s_latestUpdateTime",
      "outputs": [
        {
          "internalType": "uint256",
          "name": "",
          "type": "uint256"
        }
      ],
      "stateMutability": "view",
      "type": "function"
    },
    {
      "inputs": [],
      "name": "s_rewardPerTokenStored",
      "outputs": [
        {
          "internalType": "uint256",
          "name": "",
          "type": "uint256"
        }
      ],
      "stateMutability": "view",
      "type": "function"
    },
    {
      "inputs": [],
      "name": "s_rewardToken",
      "outputs": [
        {
          "internalType": "contract IERC20",
          "name": "",
          "type": "address"
        }
      ],
      "stateMutability": "view",
      "type": "function"
    },
    {
      "inputs": [
        {
          "internalType": "address",
          "name": "",
          "type": "address"
        }
      ],
      "name": "s_rewards",
      "outputs": [
        {
          "internalType": "uint256",
          "name": "",
          "type": "uint256"
        }
      ],
      "stateMutability": "view",
      "type": "function"
    },
    {
      "inputs": [],
      "name": "s_stakingToken",
      "outputs": [
        {
          "internalType": "contract IERC20",
          "name": "",
          "type": "address"
        }
      ],
      "stateMutability": "view",
      "type": "function"
    },
    {
      "inputs": [
        {
          "internalType": "address",
          "name": "",
          "type": "address"
        }
      ],
      "name": "s_userRewardPerTokenPaid",
      "outputs": [
        {
          "internalType": "uint256",
          "name": "",
          "type": "uint256"
        }
      ],
      "stateMutability": "view",
      "type": "function"
    },
    {
      "inputs": [
        {
          "internalType": "uint256",
          "name": "amount",
          "type": "uint256"
        }
      ],
      "name": "stake",
      "outputs": [],
      "stateMutability": "nonpayable",
      "type": "function"
    },
    {
      "inputs": [
        {
          "internalType": "uint256",
          "name": "amount",
          "type": "uint256"
        }
      ],
      "name": "withdraw",
      "outputs": [],
      "stateMutability": "nonpayable",
      "type": "function"
    }
  ],
  "bytecode": "0x60806040523480156200001157600080fd5b506040516200118c3803806200118c8339818101604052810190620000379190620000d7565b816000806101000a81548173ffffffffffffffffffffffffffffffffffffffff021916908373ffffffffffffffffffffffffffffffffffffffff16021790555080600160006101000a81548173ffffffffffffffffffffffffffffffffffffffff021916908373ffffffffffffffffffffffffffffffffffffffff160217905550505062000171565b600081519050620000d18162000157565b92915050565b60008060408385031215620000f157620000f062000152565b5b60006200010185828601620000c0565b92505060206200011485828601620000c0565b9150509250929050565b60006200012b8262000132565b9050919050565b600073ffffffffffffffffffffffffffffffffffffffff82169050919050565b600080fd5b62000162816200011e565b81146200016e57600080fd5b50565b61100b80620001816000396000f3fe608060405234801561001057600080fd5b50600436106100e95760003560e01c8063ab32eb691161008c578063bea0815111610066578063bea0815114610238578063cd3daf9d14610268578063f245ace414610286578063f53b6804146102b6576100e9565b8063ab32eb69146101e0578063adca9b7214610210578063b88a802f1461022e576100e9565b8063399080ec116100c8578063399080ec146101585780635997bb37146101885780636374cc00146101a6578063a694fc3a146101c4576100e9565b80628cc262146100ee5780632e1a7d4d1461011e578063304ac91b1461013a575b600080fd5b61010860048036038101906101039190610c50565b6102d4565b6040516101159190610d7f565b60405180910390f35b61013860048036038101906101339190610caa565b6103f3565b005b61014261062b565b60405161014f9190610d7f565b60405180910390f35b610172600480360381019061016d9190610c50565b610631565b60405161017f9190610d7f565b60405180910390f35b61019061067a565b60405161019d9190610d7f565b60405180910390f35b6101ae61067f565b6040516101bb9190610d64565b60405180910390f35b6101de60048036038101906101d99190610caa565b6106a5565b005b6101fa60048036038101906101f59190610c50565b61091c565b6040516102079190610d7f565b60405180910390f35b610218610934565b6040516102259190610d64565b60405180910390f35b610236610958565b005b610252600480360381019061024d9190610c50565b610b78565b60405161025f9190610d7f565b60405180910390f35b610270610b90565b60405161027d9190610d7f565b60405180910390f35b6102a0600480360381019061029b9190610c50565b610bf3565b6040516102ad9190610d7f565b60405180910390f35b6102be610c0b565b6040516102cb9190610d7f565b60405180910390f35b600080600260008473ffffffffffffffffffffffffffffffffffffffff1673ffffffffffffffffffffffffffffffffffffffff1681526020019081526020016000205490506000600360008573ffffffffffffffffffffffffffffffffffffffff1673ffffffffffffffffffffffffffffffffffffffff1681526020019081526020016000205490506000610367610b90565b90506000600460008773ffffffffffffffffffffffffffffffffffffffff1673ffffffffffffffffffffffffffffffffffffffff168152602001908152602001600020549050600081670de0b6b3a764000085856103c59190610e7b565b876103d09190610e21565b6103da9190610df0565b6103e49190610d9a565b90508095505050505050919050565b336103fc610b90565b60068190555042600781905550610412816102d4565b600460008373ffffffffffffffffffffffffffffffffffffffff1673ffffffffffffffffffffffffffffffffffffffff16815260200190815260200160002081905550600654600360008373ffffffffffffffffffffffffffffffffffffffff1673ffffffffffffffffffffffffffffffffffffffff1681526020019081526020016000208190555081600260003373ffffffffffffffffffffffffffffffffffffffff1673ffffffffffffffffffffffffffffffffffffffff168152602001908152602001600020546104e69190610e7b565b600260003373ffffffffffffffffffffffffffffffffffffffff1673ffffffffffffffffffffffffffffffffffffffff16815260200190815260200160002081905550816005546105379190610e7b565b60058190555060008060009054906101000a900473ffffffffffffffffffffffffffffffffffffffff1673ffffffffffffffffffffffffffffffffffffffff1663a9059cbb33856040518363ffffffff1660e01b815260040161059b929190610d3b565b602060405180830381600087803b1580156105b557600080fd5b505af11580156105c9573d6000803e3d6000fd5b505050506040513d601f19601f820116820180604052508101906105ed9190610c7d565b905080610626576040517feb4c684700000000000000000000000000000000000000000000000000000000815260040160405180910390fd5b505050565b60065481565b6000600260008373ffffffffffffffffffffffffffffffffffffffff1673ffffffffffffffffffffffffffffffffffffffff168152602001908152602001600020549050919050565b606481565b600160009054906101000a900473ffffffffffffffffffffffffffffffffffffffff1681565b336106ae610b90565b600681905550426007819055506106c4816102d4565b600460008373ffffffffffffffffffffffffffffffffffffffff1673ffffffffffffffffffffffffffffffffffffffff16815260200190815260200160002081905550600654600360008373ffffffffffffffffffffffffffffffffffffffff1673ffffffffffffffffffffffffffffffffffffffff16815260200190815260200160002081905550816000811415610789576040517f9b677fa000000000000000000000000000000000000000000000000000000000815260040160405180910390fd5b82600260003373ffffffffffffffffffffffffffffffffffffffff1673ffffffffffffffffffffffffffffffffffffffff168152602001908152602001600020546107d49190610d9a565b600260003373ffffffffffffffffffffffffffffffffffffffff1673ffffffffffffffffffffffffffffffffffffffff16815260200190815260200160002081905550826005546108259190610d9a565b60058190555060008060009054906101000a900473ffffffffffffffffffffffffffffffffffffffff1673ffffffffffffffffffffffffffffffffffffffff166323b872dd3330876040518463ffffffff1660e01b815260040161088b93929190610d04565b602060405180830381600087803b1580156108a557600080fd5b505af11580156108b9573d6000803e3d6000fd5b505050506040513d601f19601f820116820180604052508101906108dd9190610c7d565b905080610916576040517feb4c684700000000000000000000000000000000000000000000000000000000815260040160405180910390fd5b50505050565b60026020528060005260406000206000915090505481565b60008054906101000a900473ffffffffffffffffffffffffffffffffffffffff1681565b33610961610b90565b60068190555042600781905550610977816102d4565b600460008373ffffffffffffffffffffffffffffffffffffffff1673ffffffffffffffffffffffffffffffffffffffff16815260200190815260200160002081905550600654600360008373ffffffffffffffffffffffffffffffffffffffff1673ffffffffffffffffffffffffffffffffffffffff168152602001908152602001600020819055506000600460003373ffffffffffffffffffffffffffffffffffffffff1673ffffffffffffffffffffffffffffffffffffffff1681526020019081526020016000205490506000600460003373ffffffffffffffffffffffffffffffffffffffff1673ffffffffffffffffffffffffffffffffffffffff168152602001908152602001600020819055506000600160009054906101000a900473ffffffffffffffffffffffffffffffffffffffff1673ffffffffffffffffffffffffffffffffffffffff1663a9059cbb33846040518363ffffffff1660e01b8152600401610ae8929190610d3b565b602060405180830381600087803b158015610b0257600080fd5b505af1158015610b16573d6000803e3d6000fd5b505050506040513d601f19601f82011682018060405250810190610b3a9190610c7d565b905080610b73576040517feb4c684700000000000000000000000000000000000000000000000000000000815260040160405180910390fd5b505050565b60046020528060005260406000206000915090505481565b6000806005541415610ba6576006549050610bf0565b600554670de0b6b3a7640000606460075442610bc29190610e7b565b610bcc9190610e21565b610bd69190610e21565b610be09190610df0565b600654610bed9190610d9a565b90505b90565b60036020528060005260406000206000915090505481565b60075481565b600081359050610c2081610f90565b92915050565b600081519050610c3581610fa7565b92915050565b600081359050610c4a81610fbe565b92915050565b600060208284031215610c6657610c65610f8b565b5b6000610c7484828501610c11565b91505092915050565b600060208284031215610c9357610c92610f8b565b5b6000610ca184828501610c26565b91505092915050565b600060208284031215610cc057610cbf610f8b565b5b6000610cce84828501610c3b565b91505092915050565b610ce081610eaf565b82525050565b610cef81610ef7565b82525050565b610cfe81610eed565b82525050565b6000606082019050610d196000830186610cd7565b610d266020830185610cd7565b610d336040830184610cf5565b949350505050565b6000604082019050610d506000830185610cd7565b610d5d6020830184610cf5565b9392505050565b6000602082019050610d796000830184610ce6565b92915050565b6000602082019050610d946000830184610cf5565b92915050565b6000610da582610eed565b9150610db083610eed565b9250827fffffffffffffffffffffffffffffffffffffffffffffffffffffffffffffffff03821115610de557610de4610f2d565b5b828201905092915050565b6000610dfb82610eed565b9150610e0683610eed565b925082610e1657610e15610f5c565b5b828204905092915050565b6000610e2c82610eed565b9150610e3783610eed565b9250817fffffffffffffffffffffffffffffffffffffffffffffffffffffffffffffffff0483118215151615610e7057610e6f610f2d565b5b828202905092915050565b6000610e8682610eed565b9150610e9183610eed565b925082821015610ea457610ea3610f2d565b5b828203905092915050565b6000610eba82610ecd565b9050919050565b60008115159050919050565b600073ffffffffffffffffffffffffffffffffffffffff82169050919050565b6000819050919050565b6000610f0282610f09565b9050919050565b6000610f1482610f1b565b9050919050565b6000610f2682610ecd565b9050919050565b7f4e487b7100000000000000000000000000000000000000000000000000000000600052601160045260246000fd5b7f4e487b7100000000000000000000000000000000000000000000000000000000600052601260045260246000fd5b600080fd5b610f9981610eaf565b8114610fa457600080fd5b50565b610fb081610ec1565b8114610fbb57600080fd5b50565b610fc781610eed565b8114610fd257600080fd5b5056fea2646970667358221220e74f8dc00617908163e056aa9a7b51a4de4980484905df8be7ae5adda9ad9b8964736f6c63430008070033",
  "linkReferences": {},
  "deployedLinkReferences": {}
}