{
  "_format": "hh-sol-artifact-1",
  "contractName": "Staking",
  "sourceName": "contracts/Staking.sol",
  "abi": [
    {
      "inputs": [
        {
          "internalType": "address",
          "name": "stakingToken",
          "type": "address"
        },
        {
          "internalType": "address",
          "name": "rewardToken",
          "type": "address"
        }
      ],
      "stateMutability": "nonpayable",
      "type": "constructor"
    },
    {
      "inputs": [],
      "name": "Staking__NeedsMoreThanZero",
      "type": "error"
    },
    {
      "inputs": [],
      "name": "Staking__TransferFailed",
      "type": "error"
    },
    {
      "inputs": [],
      "name": "claimReward",
      "outputs": [],
      "stateMutability": "nonpayable",
      "type": "function"
    },
    {
      "inputs": [
        {
          "internalType": "address",
          "name": "account",
          "type": "address"
        }
      ],
      "name": "earned",
      "outputs": [
        {
          "internalType": "uint256",
          "name": "",
          "type": "uint256"
        }
      ],
      "stateMutability": "view",
      "type": "function"
    },
    {
      "inputs": [],
      "name": "rewardPerToken",
      "outputs": [
        {
          "internalType": "uint256",
          "name": "",
          "type": "uint256"
        }
      ],
      "stateMutability": "view",
      "type": "function"
    },
    {
      "inputs": [
        {
          "internalType": "address",
          "name": "",
          "type": "address"
        }
      ],
      "name": "s_balances",
      "outputs": [
        {
          "internalType": "uint256",
          "name": "",
          "type": "uint256"
        }
      ],
      "stateMutability": "view",
      "type": "function"
    },
    {
      "inputs": [],
      "name": "s_rewardToken",
      "outputs": [
        {
          "internalType": "contract IERC20",
          "name": "",
          "type": "address"
        }
      ],
      "stateMutability": "view",
      "type": "function"
    },
    {
      "inputs": [
        {
          "internalType": "address",
          "name": "",
          "type": "address"
        }
      ],
      "name": "s_rewards",
      "outputs": [
        {
          "internalType": "uint256",
          "name": "",
          "type": "uint256"
        }
      ],
      "stateMutability": "view",
      "type": "function"
    },
    {
      "inputs": [],
      "name": "s_stakingToken",
      "outputs": [
        {
          "internalType": "contract IERC20",
          "name": "",
          "type": "address"
        }
      ],
      "stateMutability": "view",
      "type": "function"
    },
    {
      "inputs": [
        {
          "internalType": "address",
          "name": "",
          "type": "address"
        }
      ],
      "name": "s_userRewardPerTokenPaid",
      "outputs": [
        {
          "internalType": "uint256",
          "name": "",
          "type": "uint256"
        }
      ],
      "stateMutability": "view",
      "type": "function"
    },
    {
      "inputs": [
        {
          "internalType": "uint256",
          "name": "amount",
          "type": "uint256"
        }
      ],
      "name": "stake",
      "outputs": [],
      "stateMutability": "nonpayable",
      "type": "function"
    },
    {
      "inputs": [
        {
          "internalType": "uint256",
          "name": "amount",
          "type": "uint256"
        }
      ],
      "name": "withdraw",
      "outputs": [],
      "stateMutability": "nonpayable",
      "type": "function"
    }
  ],
  "bytecode": "0x60806040523480156200001157600080fd5b5060405162001018380380620010188339818101604052810190620000379190620000d7565b816000806101000a81548173ffffffffffffffffffffffffffffffffffffffff021916908373ffffffffffffffffffffffffffffffffffffffff16021790555080600160006101000a81548173ffffffffffffffffffffffffffffffffffffffff021916908373ffffffffffffffffffffffffffffffffffffffff160217905550505062000171565b600081519050620000d18162000157565b92915050565b60008060408385031215620000f157620000f062000152565b5b60006200010185828601620000c0565b92505060206200011485828601620000c0565b9150509250929050565b60006200012b8262000132565b9050919050565b600073ffffffffffffffffffffffffffffffffffffffff82169050919050565b600080fd5b62000162816200011e565b81146200016e57600080fd5b50565b610e9780620001816000396000f3fe608060405234801561001057600080fd5b506004361061009d5760003560e01c8063adca9b7211610066578063adca9b7214610158578063b88a802f14610176578063bea0815114610180578063cd3daf9d146101b0578063f245ace4146101ce5761009d565b80628cc262146100a25780632e1a7d4d146100d25780636374cc00146100ee578063a694fc3a1461010c578063ab32eb6914610128575b600080fd5b6100bc60048036038101906100b79190610adc565b6101fe565b6040516100c99190610c0b565b60405180910390f35b6100ec60048036038101906100e79190610b36565b61031d565b005b6100f6610555565b6040516101039190610bf0565b60405180910390f35b61012660048036038101906101219190610b36565b61057b565b005b610142600480360381019061013d9190610adc565b6107f2565b60405161014f9190610c0b565b60405180910390f35b61016061080a565b60405161016d9190610bf0565b60405180910390f35b61017e61082e565b005b61019a60048036038101906101959190610adc565b610a09565b6040516101a79190610c0b565b60405180910390f35b6101b8610a21565b6040516101c59190610c0b565b60405180910390f35b6101e860048036038101906101e39190610adc565b610a85565b6040516101f59190610c0b565b60405180910390f35b600080600260008473ffffffffffffffffffffffffffffffffffffffff1673ffffffffffffffffffffffffffffffffffffffff1681526020019081526020016000205490506000600360008573ffffffffffffffffffffffffffffffffffffffff1673ffffffffffffffffffffffffffffffffffffffff1681526020019081526020016000205490506000610291610a21565b90506000600460008773ffffffffffffffffffffffffffffffffffffffff1673ffffffffffffffffffffffffffffffffffffffff168152602001908152602001600020549050600081670de0b6b3a764000085856102ef9190610d07565b876102fa9190610cad565b6103049190610c7c565b61030e9190610c26565b90508095505050505050919050565b33610326610a21565b6007819055504260088190555061033c816101fe565b600460008373ffffffffffffffffffffffffffffffffffffffff1673ffffffffffffffffffffffffffffffffffffffff16815260200190815260200160002081905550600754600360008373ffffffffffffffffffffffffffffffffffffffff1673ffffffffffffffffffffffffffffffffffffffff1681526020019081526020016000208190555081600260003373ffffffffffffffffffffffffffffffffffffffff1673ffffffffffffffffffffffffffffffffffffffff168152602001908152602001600020546104109190610d07565b600260003373ffffffffffffffffffffffffffffffffffffffff1673ffffffffffffffffffffffffffffffffffffffff16815260200190815260200160002081905550816006546104619190610d07565b60068190555060008060009054906101000a900473ffffffffffffffffffffffffffffffffffffffff1673ffffffffffffffffffffffffffffffffffffffff1663a9059cbb33856040518363ffffffff1660e01b81526004016104c5929190610bc7565b602060405180830381600087803b1580156104df57600080fd5b505af11580156104f3573d6000803e3d6000fd5b505050506040513d601f19601f820116820180604052508101906105179190610b09565b905080610550576040517feb4c684700000000000000000000000000000000000000000000000000000000815260040160405180910390fd5b505050565b600160009054906101000a900473ffffffffffffffffffffffffffffffffffffffff1681565b33610584610a21565b6007819055504260088190555061059a816101fe565b600460008373ffffffffffffffffffffffffffffffffffffffff1673ffffffffffffffffffffffffffffffffffffffff16815260200190815260200160002081905550600754600360008373ffffffffffffffffffffffffffffffffffffffff1673ffffffffffffffffffffffffffffffffffffffff1681526020019081526020016000208190555081600081141561065f576040517f9b677fa000000000000000000000000000000000000000000000000000000000815260040160405180910390fd5b82600260003373ffffffffffffffffffffffffffffffffffffffff1673ffffffffffffffffffffffffffffffffffffffff168152602001908152602001600020546106aa9190610c26565b600260003373ffffffffffffffffffffffffffffffffffffffff1673ffffffffffffffffffffffffffffffffffffffff16815260200190815260200160002081905550826006546106fb9190610c26565b60068190555060008060009054906101000a900473ffffffffffffffffffffffffffffffffffffffff1673ffffffffffffffffffffffffffffffffffffffff166323b872dd3330876040518463ffffffff1660e01b815260040161076193929190610b90565b602060405180830381600087803b15801561077b57600080fd5b505af115801561078f573d6000803e3d6000fd5b505050506040513d601f19601f820116820180604052508101906107b39190610b09565b9050806107ec576040517feb4c684700000000000000000000000000000000000000000000000000000000815260040160405180910390fd5b50505050565b60026020528060005260406000206000915090505481565b60008054906101000a900473ffffffffffffffffffffffffffffffffffffffff1681565b33610837610a21565b6007819055504260088190555061084d816101fe565b600460008373ffffffffffffffffffffffffffffffffffffffff1673ffffffffffffffffffffffffffffffffffffffff16815260200190815260200160002081905550600754600360008373ffffffffffffffffffffffffffffffffffffffff1673ffffffffffffffffffffffffffffffffffffffff168152602001908152602001600020819055506000600460003373ffffffffffffffffffffffffffffffffffffffff1673ffffffffffffffffffffffffffffffffffffffff1681526020019081526020016000205490506000600160009054906101000a900473ffffffffffffffffffffffffffffffffffffffff1673ffffffffffffffffffffffffffffffffffffffff1663a9059cbb33846040518363ffffffff1660e01b8152600401610979929190610bc7565b602060405180830381600087803b15801561099357600080fd5b505af11580156109a7573d6000803e3d6000fd5b505050506040513d601f19601f820116820180604052508101906109cb9190610b09565b905080610a04576040517feb4c684700000000000000000000000000000000000000000000000000000000815260040160405180910390fd5b505050565b60046020528060005260406000206000915090505481565b6000806006541415610a37576007549050610a82565b600654670de0b6b3a764000060055460085442610a549190610d07565b610a5e9190610cad565b610a689190610cad565b610a729190610c7c565b600754610a7f9190610c26565b90505b90565b60036020528060005260406000206000915090505481565b600081359050610aac81610e1c565b92915050565b600081519050610ac181610e33565b92915050565b600081359050610ad681610e4a565b92915050565b600060208284031215610af257610af1610e17565b5b6000610b0084828501610a9d565b91505092915050565b600060208284031215610b1f57610b1e610e17565b5b6000610b2d84828501610ab2565b91505092915050565b600060208284031215610b4c57610b4b610e17565b5b6000610b5a84828501610ac7565b91505092915050565b610b6c81610d3b565b82525050565b610b7b81610d83565b82525050565b610b8a81610d79565b82525050565b6000606082019050610ba56000830186610b63565b610bb26020830185610b63565b610bbf6040830184610b81565b949350505050565b6000604082019050610bdc6000830185610b63565b610be96020830184610b81565b9392505050565b6000602082019050610c056000830184610b72565b92915050565b6000602082019050610c206000830184610b81565b92915050565b6000610c3182610d79565b9150610c3c83610d79565b9250827fffffffffffffffffffffffffffffffffffffffffffffffffffffffffffffffff03821115610c7157610c70610db9565b5b828201905092915050565b6000610c8782610d79565b9150610c9283610d79565b925082610ca257610ca1610de8565b5b828204905092915050565b6000610cb882610d79565b9150610cc383610d79565b9250817fffffffffffffffffffffffffffffffffffffffffffffffffffffffffffffffff0483118215151615610cfc57610cfb610db9565b5b828202905092915050565b6000610d1282610d79565b9150610d1d83610d79565b925082821015610d3057610d2f610db9565b5b828203905092915050565b6000610d4682610d59565b9050919050565b60008115159050919050565b600073ffffffffffffffffffffffffffffffffffffffff82169050919050565b6000819050919050565b6000610d8e82610d95565b9050919050565b6000610da082610da7565b9050919050565b6000610db282610d59565b9050919050565b7f4e487b7100000000000000000000000000000000000000000000000000000000600052601160045260246000fd5b7f4e487b7100000000000000000000000000000000000000000000000000000000600052601260045260246000fd5b600080fd5b610e2581610d3b565b8114610e3057600080fd5b50565b610e3c81610d4d565b8114610e4757600080fd5b50565b610e5381610d79565b8114610e5e57600080fd5b5056fea2646970667358221220cb37a30fad73e1c148fff6c8d05f430c621d6d1bb24e08ed7f9832b1aa40ecf764736f6c63430008070033",
  "linkReferences": {},
  "deployedLinkReferences": {}
}